:100891002020202020202020202020202020202057
:0B08A1000048656C6C6F000000004018
:10069C00603F0005FF04DBFF08ACFF0830FF09B921
:1006AC00FF05FBFF09C6FF09D2FF0916FF0925FF4D
:1006BC000934FF0943FF0961FF0952FF0970FF0963
:1006CC007FFF098EFF099DFF07A5FF0904FF03D7D4
:0306DC00FF09AC67
:10085400900088EFF0900088E0FF60120000000034
:0F0864000000000000000000000014F080E722F8
:10076500900084EEF0A3EFF0900084E0FEA3E0FF9C
:100775004E602C43E1107FC81208547FC8120854FC
:100785007FC81208547FC81208547FC812085490B5
:100795000085E024FFF0900084E034FFF080C9225A
:10080B0075C7507F6412085475E78075E30075E473
:10081B004075E50475E21475E64675E6B90075E5B5
:05082B000075E700224A
:1002810090006EEFF0A3ECF0A3EDF0A3EBF0A3EA86
:04029100F0A3E9F0FD
:100295009000767401F043D4209000447405F05327
:1002A500D4F7E5D420E30C900044E0FF70F402039A
:1002B500D180EF53D4DF43D404900076E004F0906E
:1002C500006EE0FF54FEF5D29000447405F053D45F
:1002D500F7E5D420E30C900044E0FF70F40203D16D
:1002E50080EF900076E004F090006FE0FEA3E0FF61
:1002F500EEFF7E00F5D29000447405F053D4F7E587
:10030500D420E30C900044E0FF70F40203D180EFA9
:10031500900076E004F090006FE0FEA3E0FFF5D2D8
:100325009000447405F053D4F7E5D420E30C900015
:1003350044E0FF70F40203D180EF900076E004F012
:10034500900075E4F0900074E0FFA3E0FEC39F50B9
:1003550050900074E014FFA3E0EFB5060553D4FBFD
:10036500800343D404900071E0FBA3E0FAA3E0F915
:10037500900075E0FFF582758300120112FFF5D23A
:100385009000447405F053D4F7E5D420E30B9000B6
:1003950044E0FF70F4803580F0900075E004F08053
:1003A500A4900076E004F043D4109000447405F066
:1003B50053D4F7E5D430E40B900044E0FF70F480AB
:1003C5000B80F053D4EF53D4F77F0022900076E0F2
:0103D500FF28
:0103D6002204
:1007DA00900089EFF0E0FF900000E0FEEF4EFF90FE
:1007EA000089F0900001E0FF7B017A00798990008E
:1007FA00747401F07D007C00120281EF600280FEB9
:01080A0022CB
:1008730090008AEFF0E0FF4404FF1207DA7F0112D1
:0E088300085490008AE0FF54FBFF1207DA22AF
:1008DF0090008BEFF0E0FF1207DA90008BE0FF1231
:0308EF0008732269
:0807240090007DEFF0A3EDF061
:10072C0090007DE0FF54F0FF90007FF090007DE0A2
:10073C00FFC454F0FF54F0FF900080F090007EE076
:10074C00FFA3E0FE4FFF1208DF90007EE0FF900059
:08075C0080E0FE4FFF1208DFF0
:010764002272
:1008F20090008CEFF0E0FF7D001207247F251208A4
:0209020054227D
:1009040090008DEFF0E0FF7D011207247F2912088B
:0209140054226B
:1004DB00900086EFF0A3EDF0E0FF60047F08800250
:1004EB007F00900000EFF0900086E0FF25E0FF908A
:1004FB000001F0900000E0FF1207DA7F0A7E001285
:10050B0007657F301208DF7FC21208547F30120854
:10051B00DF7F961208547F301208DF7F9612085443
:10052B007F201208DF7F961208549000047428F085
:10053B00E0FF1208F2900002740CF0E0FF1208F2D8
:10054B007F011208F27F027E001207659000037490
:10055B0006F0E0FF1208F27F021208F27F027E0023
:04056B0012076522EC
:1008AC007F481209047F651209047F6C1209047FCA
:0A08BC006C1209047F6F1209042278
:0D09AC007F011208F27F027E001207652213
:0D09B9007F021208F27F027E001207652205
:0805FB00900077EFF0A3EDF092
:100603007BFF7A0879A8C003C002C0017B017A008E
:100613007979A801AC027D01D001D002D0037E001C
:100623007F041200D3900077E0FF25E02477F58262
:10063300E43400F583E0FEA3E0FF900078E0FEEFF2
:0A0643002EFF14FF4480FF1208F29E
:01064D00228A
:0C09C6009000007408F07F001207DA2295
:0A09D200900000E4F0FF1207DA22A3
:0F091600900002E0FF4404FFF0E0FF1208F2221D
:0F092500900002E0FF54FBFFF0E0FF1208F22207
:0F093400900002E0FF4402FFF0E0FF1208F22201
:0F094300900002E0FF54FDFFF0E0FF1208F222E7
:0F095200900002E0FF54FEFFF0E0FF1208F222D7
:0F096100900002E0FF4401FFF0E0FF1208F222D5
:0F097000900003E0FF4402FFF0E0FF1208F222C4
:0F097F00900003E0FF54FDFFF0E0FF1208F222AA
:0F098E00900003E0FF4401FFF0E0FF1208F222A7
:0F099D00900003E0FF54FEFFF0E0FF1208F2228B
:1007A500900081EBF0A3EAF0A3E9F0900081E0FB73
:1007B500A3E0FAA3E0F91200F9FF6018900081E0C8
:1007C500A3E475F001120167A9F0FA1200F9FF120E
:0507D500090480D72299
:100830007D017F011205FB7BFF7A0879911207A5E4
:100840007D017F021205FB7BFF7A0879911207A5D3
:040850001209B922AE
:0603D7009000451201A197
:1003DD007B017A00796990006AEBF0A3EAF0A3E95A
:1003ED00F07F007E007D007C00900045E0F8A3E0EA
:1003FD00F9A3E0FAA3E0FBC312018B70067F301264
:10040D000904227F007E007D007C00900045E0F80D
:10041D00A3E0F9A3E0FAA3E0FBC312018B501C7F0C
:10042D002D120904900045E0FCA3E0FDA3E0FEA31E
:10043D00E0FF12017D9000451201A190006AE0FBE2
:0A044D00A3E0FAA3E0F9E412013F76
:100457007B0A7A0079007800900045E0FCA3E0FD74
:10046700A3E0FEA3E0FF1206E0AC00AD01AE02AFD1
:100477000390006DEFF0900045E0FCA3E0FDA3E0E2
:10048700FEA3E0FF7B0A7A00790078001206E0906D
:1004970000451201A190006DE0FF2430FF90006A33
:1004A700E0FBA374FFF5F0120151A9F0FAEF120176
:0104B7003F05
:1004B800900045E0FCA3E0FDA3E0FEA3E0FFEC4DC7
:1004C8004E4F708B90006AE0FBA3E0FAA3E0F912AC
:0204D80007A576
:0104DA0022FF
:1008C60075D400E5D4547CFF4403F5D4E5A454F96B
:0908D600FF4402F5A443D44022C2
:0709DC0012080B1208C622ED
:10064E001209DC900005E0FBA3E0FAA3E0F9F582C5
:10065E008A837D017F271201B190000BE0FBA3E09E
:10066E00FAA3E0F91201AD7BFF7A0879A2C003C0AC
:10067E0002C001900038E0FBA3E0FAA3E0F9F58296
:0E068E008A83D001D002D0031201B180FE2277
:0300000002056F87
:0C056F00787FE4F6D8FD7581070205B620
:10000300E709F608DFFA8046E709F208DFFA803EDF
:1000130088828C83E709F0A3DFFA8032E309F608CC
:10002300DFFA8078E309F208DFFA807088828C8334
:10003300E309F0A3DFFA806489828A83E0A3F608E8
:10004300DFFA805889828A83E0A3F208DFFA804CC2
:1000530080D280FA80C680D4806980F28033801099
:1000630080A680EA809A80A880DA80E280CA803302
:1000730089828A83ECFAE493A3C8C582C8CCC5837A
:10008300CCF0A3C8C582C8CCC583CCDFE9DEE7804A
:100093000D89828A83E493A3F608DFF9ECFAA9F0C9
:1000A300EDFB2289828A83ECFAE0A3C8C582C8CC1F
:1000B300C583CCF0A3C8C582C8CCC583CCDFEADE38
:1000C300E880DB89828A83E493A3F208DFF980CC9A
:1000D30088F0EF60010E4E60C388F0ED2402B40493
:1000E3000050B9F582EB2402B4040050AF2323453A
:0600F3008223900053730C
:1000F900BB010689828A83E0225002E722BBFE0205
:09010900E32289828A83E4932237
:10011200BB010CE58229F582E5833AF583E02250A2
:1001220006E92582F8E622BBFE06E92582F8E222EC
:0D013200E58229F582E5833AF583E4932206
:10013F00BB010689828A83F0225002F722BBFE019F
:02014F00F32299
:10015100C5F0F8A3E028F0C5F0F8E5821582700239
:060161001583E038F022D6
:10016700A3F8E0C5F025F0F0E5821582700215834B
:06017700E0C838F0E822A8
:1006E000C2D5E830E70FB2D5E4C39BFBE49AFAE445
:1006F00099F9E498F8EC30E717B2D5120716120111
:10070000EFE4C39BFBE49AFAE499F9E498F88003D8
:100710001201EF30D50DE4C39FFFE49EFEE49DFD82
:04072000E49CFC2237
:0E017D00C3E49FFFE49EFEE49DFDE49CFC2293
:10018B00EB9FF5F0EA9E42F0E99D42F0EC6480C8EB
:06019B0064809845F0228B
:0C01A100ECF0A3EDF0A3EEF0A3EFF022D1
:0601AD008A838982E473DD
:10057B0002064EE493A3F8E493A34003F68001F242
:10058B0008DFF48029E493A3F85407240CC8C33381
:10059B00C4540F4420C8834004F456800146F6DF50
:1005AB00E4800B010204081020408090069CE47E3E
:1005BB00019360BCA3FF543F30E509541FFEE49345
:1005CB00A360010ECF54C025E060A840B8E493A30C
:1005DB00FAE493A3F8E493A3C8C582C8CAC583CA37
:1005EB00F0A3C8C582C8CAC583CADFE9DEE780BEEF
:0106DF00001A
:1001B30075F008758200EF2FFFEE33FECD33CDCC03
:1001C30033CCC58233C5829BED9AEC99E582984086
:1001D3000CF582EE9BFEED9AFDEC99FC0FD5F0D663
:1001E300E4CEFBE4CDFAE4CCF9A88222B800C1B98D
:1001F3000059BA002DEC8BF084CFCECDFCE5F0CBCB
:10020300F97818EF2FFFEE33FEED33FDEC33FCEB03
:1002130033FB10D703994004EB99FB0FD8E5E4F9BE
:10022300FA227818EF2FFFEE33FEED33FDEC33FCAB
:10023300C933C910D7059BE99A4007EC9BFCE99A9F
:10024300F90FD8E0E4C9FAE4CCFB2275F010EF2FE4
:10025300FFEE33FEED33FDCC33CCC833C810D707E4
:100263009BEC9AE899400AED9BFDEC9AFCE899F81F
:0E0273000FD5F0DAE4CDFBE4CCFAE4C8F922B2
:00000001FF
